:020000040800F2
:1000000000800120B92F00080930000809300008DD
:10001000093000080930000809300008000000001D
:10002000000000000000000000000000093000088F
:1000300009300008000000000930000809300008FD
:1000400009300008093000080930000809300008AC
:10005000093000080930000809300008093000089C
:10006000093000080930000809300008093000088C
:10007000093000080930000809300008093000087C
:1000800009300008093000080930000800000000AD
:10009000000000000000000000000000093000081F
:1000A000093000080930000809300008093000084C
:1000B000093000080930000809300008093000083C
:1000C000093000080930000809300008093000082C
:1000D000093000080930000809300008000000005D
:1000E000093000080930000809300008000000004D
:1000F00000000000000000000000000009300008BF
:10010000000000000930000809300008093000082C
:1001100000000000000000000000000000000000DF
:1001200009300008093000080930000809300008CB
:10013000093000080000000000000000000000007E
:10014000000000000000000000000000093000086E
:10015000093000080930000809300008093000089B
:10016000093000080930000800000000000000000D
:10017000000000000000000000000000000000007F
:10018000000000000930000800000000000000002E
:04019000093000082A
:100198000348044B834202D0034B03B1184770470E
:1001A8006000002060000020000000000548064BA9
:1001B8001B1AD90F01EBA301491002D0034B03B15D
:1001C8001847704760000020600000200000000011
:1001D80010B5064C237843B9FFF7DAFF044B13B187
:1001E8000448AFF300800123237010BD6000002095
:1001F80000000000AC54000808B5044B1BB10449CA
:100208000448AFF30080BDE80840CFE700000000D5
:1002180064000020AC54000881F0004102E000BFF7
:1002280083F0004330B54FEA41044FEA430594EAAE
:10023800050F08BF90EA020F1FBF54EA000C55EAE9
:10024800020C7FEA645C7FEA655C00F0E2804FEABA
:100258005454D4EB5555B8BF6D420CDD2C4480EA9C
:10026800020281EA030382EA000083EA010180EACC
:10027800020281EA0303362D88BF30BD11F0004F1A
:100288004FEA01314FF4801C4CEA113102D0404250
:1002980061EB410113F0004F4FEA03334CEA13338B
:1002A80002D0524263EB430394EA050F00F0A780A3
:1002B800A4F10104D5F1200E0DDB02FA0EFC22FA9E
:1002C80005F2801841F1000103FA0EF2801843FA92
:1002D80005F359410EE0A5F120050EF1200E012A83
:1002E80003FA0EFC28BF4CF0020C43FA05F3C018C1
:1002F80051EBE37101F0004507D54FF0000EDCF13A
:10030800000C7EEB00006EEB0101B1F5801F1BD3E2
:10031800B1F5001F0CD349085FEA30004FEA3C0CE6
:1003280004F101044FEA445212F5800F80F09A80DC
:10033800BCF1004F08BF5FEA500C50F1000041EBE0
:10034800045141EA050130BD5FEA4C0C404141EBE4
:100358000101013C28BFB1F5801FE9D291F0000FDF
:1003680004BF01460020B1FA81F308BF2033A3F18E
:100378000B03B3F120020CDA0C3208DD02F1140C85
:10038800C2F10C0201FA0CF021FA02F10CE002F1C0
:100398001402D8BFC2F1200C01FA02F120FA0CFCB9
:1003A800DCBF41EA0C019040E41AA2BF01EB045102
:1003B800294330BD6FEA04041F3C1CDA0C340EDC00
:1003C80004F11404C4F1200220FA04F001FA02F343
:1003D80040EA030021FA04F345EA030130BDC4F101
:1003E8000C04C4F1200220FA02F001FA04F340EAF6
:1003F8000300294630BD21FA04F0294630BD94F0A7
:10040800000F83F4801306BF81F480110134013D8D
:100418004EE77FEA645C18BF7FEA655C29D094EAFE
:10042800050F08BF90EA020F05D054EA000C04BF7C
:100438001946104630BD91EA030F1EBF0021002067
:1004480030BD5FEA545C05D14000494128BF41F006
:10045800004130BD14F580043CBF01F5801130BD6A
:1004680001F0004545F0FE4141F470014FF00000F5
:1004780030BD7FEA645C1ABF194610467FEA655CA6
:100488001CBF0B46024650EA013406BF52EA033548
:1004980091EA030F41F4002130BD00BF90F0000F36
:1004A80004BF0021704730B54FF4806404F1320472
:1004B8004FF000054FF0000150E700BF90F0000F2B
:1004C80004BF0021704730B54FF4806404F1320452
:1004D80010F0004548BF40424FF000013EE700BF22
:1004E80042004FEAE2014FEA31014FEA02701FBFB2
:1004F80012F07F4393F07F4F81F06051704732F0E4
:100508007F4208BF704793F07F4F04BF41F400213A
:10051800704730B54FF4607401F0004521F0004198
:100528001CE700BF50EA010208BF704730B54FF022
:1005380000050AE050EA010208BF704730B511F023
:10054800004502D5404261EB41014FF4806404F15B
:1005580032045FEA915C3FF4D8AE4FF003025FEAE1
:10056800DC0C18BF03325FEADC0C18BF033202EB65
:10057800DC02C2F1200300FA03FC20FA02F001FABF
:1005880003FE40EA0E0021FA02F11444BDE600BF62
:1005980070B54FF0FF0C4CF4E06C1CEA11541DBF11
:1005A8001CEA135594EA0C0F95EA0C0F00F0DEF8DC
:1005B8002C4481EA030621EA4C5123EA4C5350EAC1
:1005C800013518BF52EA033541F4801143F4801312
:1005D80038D0A0FB02CE4FF00005E1FB02E506F0A3
:1005E8000042E0FB03E54FF00006E1FB03569CF0F8
:1005F800000F18BF4EF0010EA4F1FF04B6F5007FFE
:1006080064F5407404D25FEA4E0E6D4146EB06066F
:1006180042EAC62141EA55514FEAC52040EA5E50F8
:100628004FEACE2EB4F1FD0C88BFBCF5E06F1ED8A2
:10063800BEF1004F08BF5FEA500E50F1000041EBD9
:10064800045170BD06F0004646EA010140EA020086
:1006580081EA0301B4EB5C04C2BFD4EB0C0541EAA8
:10066800045170BD41F480114FF0000E013C00F3BD
:10067800AB8014F1360FDEBF002001F0004170BDE1
:10068800C4F10004203C35DA0C341BDC04F11404FA
:10069800C4F1200500FA05F320FA04F001FA05F286
:1006A80040EA020001F0004221F0004110EBD37053
:1006B80021FA04F642EB06015EEA430E08BF20EA7F
:1006C800D37070BDC4F10C04C4F1200500FA04F322
:1006D80020FA05F001FA04F240EA020001F00041B4
:1006E80010EBD37041F100015EEA430E08BF20EA27
:1006F800D37070BDC4F1200500FA05F24EEA020E6F
:1007080020FA04F301FA05F243EA020321FA04F09D
:1007180001F0004121FA04F220EA020000EBD37054
:100728005EEA430E08BF20EAD37070BD94F0000F54
:100738000FD101F00046400041EB010111F4801F88
:1007480008BF013CF7D041EA060195F0000F18BF39
:10075800704703F00046520043EB030313F4801F75
:1007680008BF013DF7D043EA0603704794EA0C0F2F
:100778000CEA135518BF95EA0C0F0CD050EA410645
:1007880018BF52EA4306D1D181EA030101F00041C2
:100798004FF0000070BD50EA410606BF10461946EA
:1007A80052EA430619D094EA0C0F02D150EA0136F6
:1007B80013D195EA0C0F05D152EA03361CBF104637
:1007C80019460AD181EA030101F0004141F0FE41D6
:1007D80041F470014FF0000070BD41F0FE4141F45A
:1007E800780170BD70B54FF0FF0C4CF4E06C1CEA5A
:1007F80011541DBF1CEA135594EA0C0F95EA0C0F0F
:1008080000F0A7F8A4EB050481EA030E52EA0335C9
:100818004FEA013100F088804FEA03334FF08055EA
:1008280045EA131343EA12634FEA022245EA111517
:1008380045EA10654FEA00260EF000419D4208BFC8
:10084800964244F1FD0404F5407402D25B084FEA75
:100858003202B61A65EB03055B084FEA32024FF421
:1008680080104FF4002CB6EB020E75EB030E22BF7E
:10087800B61A754640EA0C005B084FEA3202B6EB3E
:10088800020E75EB030E22BFB61A754640EA5C00ED
:100898005B084FEA3202B6EB020E75EB030E22BF7D
:1008A800B61A754640EA9C005B084FEA3202B6EB7E
:1008B800020E75EB030E22BFB61A754640EADC003D
:1008C80055EA060E18D04FEA051545EA16754FEA9F
:1008D80006164FEAC30343EA52734FEAC2025FEABD
:1008E8001C1CC0D111F4801F0BD141EA00014FF04C
:1008F80000004FF0004CB6E711F4801F04BF01431D
:100908000020B4F1FD0C88BFBCF5E06F3FF6AFAE38
:10091800B5EB030C04BFB6EB020C5FEA500C50F1C8
:10092800000041EB045170BD0EF0004E4EEA11314B
:1009380014EB5C04C2BFD4EB0C0541EA045170BD52
:1009480041F480114FF0000E013C90E645EA060E96
:100958008DE60CEA135594EA0C0F08BF95EA0C0FC4
:100968003FF43BAF94EA0C0F0AD150EA01347FF40C
:1009780034AF95EA0C0F7FF425AF104619462CE7E3
:1009880095EA0C0F06D152EA03353FF4FDAE104646
:10099800194622E750EA410618BF52EA43067FF497
:1009A800C5AE50EA41047FF40DAF52EA43057FF427
:1009B800EBAE12E74FF0FF3C06E000BF4FF0010C32
:1009C80002E000BF4FF0010C4DF804CD4FEA410C96
:1009D8007FEA6C5C4FEA430C18BF7FEA6C5C1BD063
:1009E80001B050EA410C0CBF52EA430C91EA030FE4
:1009F80002BF90EA020F0020704710F1000F91EA41
:100A0800030F58BF994208BF90422CBFD8176FEA0E
:100A1800E37040F0010070474FEA410C7FEA6C5CDC
:100A280002D150EA013C07D14FEA430C7FEA6C5CE3
:100A3800D6D152EA033CD3D05DF8040B704700BF0F
:100A48008446104662468C461946634600E000BF5D
:100A580001B5FFF7B7FF002848BF10F1000F01BD2F
:100A68004DF808EDFFF7F4FF0CBF012000205DF8FA
:100A780008FB00BF4DF808EDFFF7EAFF34BF01207F
:100A880000205DF808FB00BF4DF808EDFFF7E0FF18
:100A980094BF012000205DF808FB00BF4DF808ED69
:100AA800FFF7CEFF94BF012000205DF808FB00BFD0
:100AB8004DF808EDFFF7C4FF34BF012000205DF8B2
:100AC80008FB00BF4FEA410C7FEA6C5C02D150EA98
:100AD800013C0AD14FEA430C7FEA6C5C02D152EA2E
:100AE800033C02D14FF0000070474FF001007047FF
:100AF8004FEA410212F5001215D211D56FF478733E
:100B0800B3EB625212D94FEAC12343F0004343EAE0
:100B1800505311F0004F23FA02F018BF40427047BB
:100B28004FF00000704750EA013005D111F0004045
:100B380008BF6FF0004070474FF00000704700BFDB
:100B48004FEA4102B2F1E04324BFB3F5001CDCF1E7
:100B5800FE5C0DD901F0004C4FEAC0024CEA50701F
:100B6800B2F1004F40EB830008BF20F0010070474E
:100B780011F0804F21D113F13872BCBF01F0004051
:100B8800704741F480114FEA5252C2F11802C2F183
:100B9800200C10FA0CF320FA02F018BF40F0010004
:100BA8004FEAC1234FEAD32303FA0CFC40EA0C00B6
:100BB80023FA02F34FEA4303CCE77FEA625307D1F3
:100BC80050EA01331EBF4FF0FE4040F4400070472A
:100BD80001F0004040F0FE4040F40000704700BFC4
:100BE800B0B5A4B000AF00F0FFFE354800F028FC17
:100BF8003449354800F0D4FB344B07F120041D4636
:100C08000FCD0FC495E80F0084E80F0097ED0A7B1D
:100C18009FED291BB0EE470AF0EE670A02F018FABA
:100C280087ED220B07F120031A462549284800F0D2
:100C380053FB00F037FE00F069FD00F0C3FD00F043
:100C480083FD0C21234801F0ADFD234801F052FD3E
:100C5800224800F06DFF224B1B78DBB2002BFAD044
:100C68001F4B00221A701F4B1B78DBB2002B3FD1A1
:100C7800144A15491C4800F083F9B0EE406AF0EEBA
:100C8800606AB0EE417AF0EE617A87ED046B87ED29
:100C9800067B0C4A0C49154800F072F9B0EE406A20
:100CA800F0EE606AB0EE417AF0EE617A87ED006BA3
:100CB80087ED027B3EE000BF00000000000000401E
:100CC800200200206803002038030020C8540008D0
:100CD80098030020D4010020440100208C0100204A
:100CE8007C0000204001002080000020E00000205F
:100CF800974A9849984800F043F9B0EE406AF0EEF8
:100D0800606AB0EE417AF0EE617A87ED006B87EDAC
:100D1800027B8F4A8F49914800F032F9B0EE406A61
:100D2800F0EE606AB0EE417AF0EE617A87ED046B1E
:100D380087ED067B97ED0E7BB0EE470AF0EE670A6B
:100D480002F032FA87ED200B97ED0E7BB0EE470AE2
:100D5800F0EE670A02F06CFA87ED1E0BD7E9000186
:100D6800D7E90423FFF714FC02460B4614461D4638
:100D7800D7E90201D7E90623FFF70AFC02460B462A
:100D880020462946FFF74EFA02460B46C7E91C23C0
:100D9800D7E90001D7E90623FFF7FAFB02460B461D
:100DA80014461D46D7E90201D7E90423FFF7F0FBF3
:100DB80002460B4620462946FFF732FA02460B4602
:100DC800C7E91A23D7E92023D7E91C01FFF7E0FB7D
:100DD80002460B4614461D46D7E91E23D7E91A01D9
:100DE800FFF7D6FB02460B4620462946FFF71AFABC
:100DF80002460B46C7E9182301231C464FF00002A0
:100E08004FF00003D7E91801FFF752FE0346002B05
:100E180001D100231C46E2B2514B1A7097ED046BC6
:100E280097ED067BB0EE460AF0EE660AB0EE471A7A
:100E3800F0EE671A00F034F987ED160BD7E9222394
:100E4800D7E91601FFF734FE0346002B6ED0D7E929
:100E58002223D7E91601FFF7C5FC02460B4643ECEF
:100E6800172BB0EE470AF0EE670A02F069F987ED32
:100E7800140B3C4B1B681846FFF710FB4FF00002A1
:100E8800394BFFF7AFFC02460B46104619462CA318
:100E9800D3E90023FFF7A6FC02460B46C7E9122355
:100EA8004FF00002314BD7E91401FFF7B9F90246B8
:100EB8000B46104619464FF000022D4BFFF768FB12
:100EC80002460B4610461946FFF712FE0346294A0A
:100ED800DB001344D3E90023C7E91023D7E9122321
:100EE800D7E91001FFF754FB02460B461046194696
:100EF800214BD3E90023FFF795F902460B461E491B
:100F0800C1E900231C4BD3E900010FA3D3E9002357
:100F1800FFF7C4FD0346002B0FD0114B1B78DBB243
:100F2800002B3FF498AE00F0F9F894E612494FF020
:100F380000024FF00003C1E900238CE6AFF3008004
:100F48000000000080842E4100000000E0FFEF4018
:100F5800680300203803002010010020B0000020A2
:100F68001C02002000000020000028400000F03F84
:100F78000000444098030020581B00200000000097
:100F8800B0B592B000AFF861B9617A614FF0000274
:100F98004FF00003C7E908234FF000024FF00003A9
:100FA800C7E90A2300237B6440E0D7E908457B6C46
:100FB8009B00FA69134493ED007A7B6C9B00BA6935
:100FC8001344D3ED007A67EE277A17EE900AFFF7FD
:100FD80087FA02460B4620462946FFF723F90246C0
:100FE8000B46C7E90823D7E90A457B6C9B00FA69D9
:100FF800134493ED007A7B6C9B007A691344D3ED1C
:10100800007AF1EE677A67EE277A17EE900AFFF713
:1010180067FA02460B4620462946FFF703F90246BF
:101028000B46C7E90A237B6C01337B647B6C0B2B73
:10103800BBDDD7E9080118A3D3E90023FFF7A8FA15
:1010480002460B46C7E90823D7E90A0112A3D3E9E8
:101058000023FFF79DFA02460B46C7E90A2307F16A
:10106800300407F120030FCB84E80F00D7E90C0107
:10107800D7E90E2341EC160B43EC172BB0EE460ACA
:10108800F0EE660AB0EE471AF0EE671A4837BD462A
:10109800B0BD00BFAFF30080555555555555C53FF8
:1010A80080B588B000AFB0EE406AF0EE606AB0EE8E
:1010B800417AF0EE617A87ED006B87ED027BD7E924
:1010C8000001D7E90023FFF763FA02460B46C7E998
:1010D8000623D7E90201D7E90223FFF759FA0246A6
:1010E8000B46C7E90423D7E90423D7E90601FFF72C
:1010F80099F802460B46104619464FF000024FF089
:101108008043FFF76FFB02460B4643EC172BB0EE0C
:10111800470AF0EE670A2037BD4680BD80B500AFAC
:1011280001220821024801F075FA00BF80BD00BF06
:101138000000024000000000B0B52DED028B86B023
:1011480000AFF860B96087ED000B4FF000024FF078
:101158000003C7E904234FF000025D4BD7E9000103
:10116800FFF79CFC0346002B6CD0BB681B7C1A461F
:1011780013469B001344DB001A46FB681344D3E96B
:101188000023C7E90423BB681B7C1A4613469B004F
:101198001344DB001A46FB681344D3E90245BB68D5
:1011A8001B7C1A4613469B001344DB001A46FB6857
:1011B8001344D3E90423D7E90001FFF731F80246C5
:1011C8000B4643EC182BBB681B7C1A4613469B0046
:1011D8001344DB001A46FB6813441B7E1846FFF7CE
:1011E8005DF902460B4643EC112BB0EE480AF0EECF
:1011F800680A01F02DFF53EC102B20462946FFF713
:10120800F1FA02460B46D7E90401FFF70BF802464C
:101218000B46C7E90423BB681B7C5B01BA6813440F
:10122800D3E9000128A3D3E90023FFF7DBFA02463C
:101238000B46D7E90401FFF7ABF902460B46C7E9AD
:10124800042332E0BB681B7C1A4613469B001344F8
:10125800DB001A46FB681344D3E908454FF0000247
:101268001C4BD7E90001FEF7DBFF02460B46204680
:101278002946FFF7B7FA02460B46C7E90423BB68BD
:101288001B7C5B01BA681344D3E900010EA3D3E9C0
:101298000023FFF7A7FA02460B46D7E90401FFF738
:1012A80077F902460B46C7E90423D7E9042343EC40
:1012B800172BB0EE470AF0EE670A1837BD46BDECAB
:1012C800028BB0BDAFF30080000000000070D74073
:1012D8000000F83F0000F03F90B58BB000AFF86019
:1012E800B9607A6000237B6244E0786AFFF7E6F829
:1012F80028A3D3E90023FFF74BF902460B46104613
:1013080019464FF00002224BFEF78CFF02460B46AF
:10131800C7E9062397ED060B7968B868FFF70CFF55
:1013280087ED040B4FF000024FF00003D7E90401EA
:10133800FFF7BEFB0346002B0FD07B6ADB00FA6881
:10134800D418D7E9042310A1D1E90001FFF74AFA1C
:1013580002460B46C4E9002309E07B6ADB00FA6811
:10136800D1184FF000024FF00003C1E900237B6A57
:1013780001337B627B6AB3F53E7FB6DB00BF00BFFB
:101388002C37BD4690BD00BF00000000E0FFEF40D5
:101398000000F03F9A9999999999993F00000000A7
:1013A80090B585B000AF786039600023FB6038E005
:1013B800F868FFF783F820A3D3E90023FFF7E8F8DC
:1013C80002460B4610461946FFF7BAFB0346BB60B8
:1013D800B868FFF785F802460B4643EC102B01F07E
:1013E800E3FE51EC100BFB689B007A68D418FFF7FA
:1013F800A7FB03462360B868FFF772F802460B465E
:1014080043EC102B01F014FF51EC100BFB689B0010
:101418003A68D418FFF794FB03462360FB6801334E
:10142800FB60FB680B2BC3DD00BF00BF1437BD4654
:1014380090BD00BFAFF3008065732D3852C1E03F07
:1014480080B483B000AF78607968AEA3D3E9002395
:10145800C1E9002379684FF00002A74BC1E90223D4
:10146800796875A3D3E90023C1E904237B680122C5
:101478001A76796872A3D3E90023C1E908237B6847
:1014880003F1280170A3D3E90023C1E900237B6895
:1014980003F128016EA3D3E90023C1E902237B6885
:1014A80003F128016CA3D3E90023C1E904237B6875
:1014B800283301221A767B6803F1280168A3D3E94F
:1014C8000023C1E908237B6803F1500166A3D3E92F
:1014D8000023C1E900237B6803F1500164A3D3E929
:1014E8000023C1E902237B6803F1500162A3D3E919
:1014F8000023C1E904237B68503301221A767B68F4
:1015080003F150015EA3D3E90023C1E908237B68F6
:1015180003F178015CA3D3E90023C1E900237B68C8
:1015280003F178015AA3D3E90023C1E902237B68B8
:1015380003F1780158A3D3E90023C1E904237B68A8
:10154800783301221A767B6803F1780154A3D3E932
:101558000023C1E908237B6803F1A00152A3D3E962
:101568000023C1E900237B6803F1A00150A3D3E95C
:101578000023C1E902237B6803F1A0014EA3D3E94C
:101588000023C1E904237B68A03301221A767B6813
:1015980003F1A0014AA3D3E90023C1E908237B682A
:1015A80003F1C80148A3D3E90023C1E900237B68FC
:1015B80003F1C80146A3D3E90023C1E902237B68EC
:1015C80003F1C80144A3D3E90023C1E904237B68DC
:1015D800C83301221A767B6803F1C80140A3D3E916
:1015E8000023C1E908237B6803F1F0014FF00002F2
:1015F800424BC1E900237B6803F1F0013AA3D3E928
:101608000023C1E902237B6803F1F0014FF00002D7
:101618003B4BC1E904237B68F03302221A767B68CE
:1016280003F1F00132A3D3E90023C1E9082300BF85
:101638000C37BD4680BC70479A9999999999E53FAE
:101648000000000000507F40295C8FC25502C04056
:101658001F85EB5178E4CA4014AE47E17A14F23F93
:1016680000000000402CD6405C8FC2F528848840DA
:10167800AE47E17A14F884400AD7A3703D0AF33FD5
:1016880000000000000C97401F85EB51B8668040B1
:1016980085EB51B81E61A8409A9999999999E93FA3
:1016A800000000000076A3403D0AD7A370DD7D400E
:1016B800AE47E17A141AB04052B81E85EB51F43F98
:1016C8000000000000F8C1405C8FC2F5286073403C
:1016D80085EB51B81E88A5409A9999999999F53F33
:1016E80000000000003FC24000000000003AD14066
:1016F800000000008055C14000F8864000805B4033
:101708000000E03F8FC2F5285CFF5B4080B586B0E3
:1017180000AF3B1D00221A605A609A60DA601A61B5
:1017280008237B600123BB600123FB6002233B612C
:101738003B1D1946034800F0EBFD00BF1837BD46B6
:1017480080BD00BF0000024080B584B000AF002318
:101758007B601A4B1B6C194A43F001031364174B47
:101768001B6C03F001037B607B68154B4FF08042D4
:101778001A60134B53225A60114B00229A60104B87
:101788000022DA600E4B00221A610D4B00229A618A
:101798000B4800F057FF07F1080300221A605A604F
:1017A8002023BB600023FB6007F1080319460448A7
:1017B80001F082FB00BF1037BD4680BD00380240F3
:1017C80044010020B0B58CB000AF0023BB60304BA3
:1017D8001B6C2F4A43F0020313642D4B1B6C03F060
:1017E8000203BB60BB6800237B60294B1B6B284A44
:1017F80043F002031363264B1B6B03F002037B6069
:101808007B68244B07F11C041D460FCD0FC42B68C1
:10181800236007F11C0319461F4800F079FD1F4B90
:101828001F4A1A601D4B53225A601C4B00229A60B3
:101838001A4B4FF6FF72DA60184B00221A61174BE9
:1018480000229A61154800F0FDFE07F10C03002202
:101858001A605A609A60DA600023FB6001233B61DA
:1018680000237B610023BB6107F10C030C2219469E
:101878000A4801F0A1F8002200211D2000F011FD06
:101888001D2000F02AFD00BF3037BD46B0BD00BFA7
:1018980000380240E854000800040240D401002047
:1018A8000004004090B591B000AF0023BB60494BE5
:1018B8001B6B484A43F001031363464B1B6B03F051
:1018C8000103BB60BB6807F12C0300221A605A6051
:1018D8009A60DA601A610323FB6203233B6307F112
:1018E8002C0319463C4800F013FD3C4B3C4A1A6057
:1018F8003A4B00225A60394B4FF080729A60374B4E
:101908000022DA60354B01221A61344B01225A61F8
:10191800324B00221A76314B0222DA612F4B002219
:1019280083F820202D4B4FF0C0629A622B4B4FF06A
:101938008052DA62294B002283F8302000237B6032
:10194800244B5B6C234A43F480735364214B5B6CD8
:1019580003F480737B607B68204800F09DF8214B7E
:1019680007F11C040FCB84E80F0007F10C030022D9
:101978001A605A609A60DA600123FB6002233B61B7
:1019880004237B6107F10C031946144800F08CF915
:1019980007F11C031946114800F086F90F4B1B6824
:1019A8009A680E4B1B6842F001029A600B4B1B6849
:1019B8005A680A4B1B6842F020025A600022012133
:1019C800122000F06EFC122000F087FC00BF4437A4
:1019D800BD4690BD00380240000002408C01002046
:1019E80000200140FC54000880B500AF0E4B1B6876
:1019F8000D4A43F4007313600B4B1B680A4A43F407
:101A080080631360084B1B68074A43F480731360B4
:101A1800032000F03BFC0F2000F00EF800F006F861
:101A28000023184680BD00BF003C024080B400AFD0
:101A380000BFBD4680BC704780B582B000AF7860FB
:101A4800124B1A68124B1B7819464FF47A73B3FB82
:101A5800F1F3B2FBF3F3184600F04DFC0346002BFC
:101A680001D001230EE07B680F2B0AD80022796889
:101A78004FF0FF3000F015FC064A7B681360002326
:101A880000E0012318460837BD4680BD0C00002041
:101A9800080000200400002080B584B000AF786002
:101AA8000023FB737B68002B01D1012333E07B68A3
:101AB8001B6C002B09D1786800F031F87B68002294
:101AC8005A647B68002283F83C207B681B6C03F017
:101AD8001003002B18D17B681B6C23F4885323F068
:101AE800020343F002027B681A64786800F000FA87
:101AF8007B6800225A647B681B6C23F0030343F065
:101B080001027B681A6401E00123FB737B680022F1
:101B180083F83C20FB7B18461037BD4680BD80B457
:101B280083B000AF786000BF0C37BD4680BC7047FB
:101B380080B485B000AF78600023BB607B6893F801
:101B48003C30012B01D10223A1E07B68012283F8FC
:101B58003C207B681B689B6803F00103012B18D0AD
:101B68007B681B689A687B681B6842F001029A6070
:101B7800494B1B68494AA2FB03239A0C13465B0096
:101B88001344BB6002E0BB68013BBB60BB68002B31
:101B9800F9D17B681B689B6803F00103012B69D1AD
:101BA8007B681B6C23F4E06323F0010343F4807229
:101BB8007B681A647B681B685B6803F48063002B8E
:101BC80007D07B681B6C23F4405343F480527B6836
:101BD8001A647B681B6C03F48053B3F5805F06D1ED
:101BE8007B685B6C23F006027B685A6402E07B68C2
:101BF80000225A647B68002283F83C20284BFB6053
:101C08007B681B686FF022021A607B681B685B6840
:101C18007A68126843F0806343F020035360FB68DE
:101C28005B6803F01F03002B0FD17B681B689B6860
:101C380003F04053002B29D17B681B689A687B68A6
:101C48001B6842F080429A6020E07B681B68154A56
:101C580093421BD17B681B689B6803F04053002BA1
:101C680014D17B681B689A687B681B6842F08042C5
:101C78009A600BE07B681B6C43F010027B681A6467
:101C88007B685B6C43F001027B685A64002318464A
:101C98001437BD4680BC70470C00002083DE1B4310
:101CA800002301400020014080B485B000AF786077
:101CB80039600023BB607B6893F83C30012B01D16D
:101CC800022308E17B68012283F83C203B681B68FB
:101CD800092B26D97B681B68D9683B681B689BB2AF
:101CE800A3F10A0213465B001344072202FA03F326
:101CF800DA437B681B680A40DA607B681B68D9682E
:101D08003B6898683B681B689BB2A3F10A021346BC
:101D18005B00134400FA03F27B681B680A43DA602D
:101D280022E07B681B6819693B681B689BB21A46EE
:101D380013465B001344072202FA03F3DA437B6875
:101D48001B680A401A617B681B6819693B689A68B6
:101D58003B681B689BB2184603465B0003449A40E5
:101D68007B681B680A431A613B685B68062B24D8AA
:101D78007B681B68596B3B685B685A1E13469B005F
:101D880013441F2202FA03F3DA437B681B680A40F4
:101D98005A637B681B68596B3B681B689BB2184683
:101DA8003B685B685A1E13469B00134400FA03F213
:101DB8007B681B680A435A634EE03B685B680C2BE0
:101DC80024D87B681B68196B3B685B68DA1F13466D
:101DD8009B0013441F2202FA03F3DA437B681B6853
:101DE8000A401A637B681B68196B3B681B689BB2C7
:101DF80018463B685B68DA1F13469B00134400FAD9
:101E080003F27B681B680A431A6325E07B681B683A
:101E1800D96A3B685B68A3F10D0213469B00134423
:101E28001F2202FA03F3DA437B681B680A40DA626E
:101E38007B681B68D96A3B681B689BB218463B687D
:101E48005B68A3F10D0213469B00134400FA03F2EA
:101E58007B681B680A43DA62214BFB607B681B685E
:101E6800204A934209D13B681B68122B05D1FB68B5
:101E78005B6843F48002FB685A607B681B68194AF8
:101E8800934223D13B681B68102B03D03B681B6827
:101E9800112B1BD1FB685B6843F40002FB685A6096
:101EA8003B681B68102B11D10F4B1B680F4AA2FB14
:101EB80003239A0C13469B0013445B00BB6002E0AB
:101EC800BB68013BBB60BB68002BF9D17B68002273
:101ED80083F83C20002318461437BD4680BC704761
:101EE80000230140002001400C00002083DE1B433A
:101EF80080B485B000AF7860794BFB60FB685B68A5
:101F080023F44032FB685A60FB685A687B685B6858
:101F18001A43FB685A607B681B685A687B681B68B1
:101F280022F480725A607B681B6859687B681B6959
:101F38001A027B681B680A435A607B681B685A68E8
:101F48007B681B6822F040725A607B681B6859687E
:101F58007B689A687B681B680A435A607B681B68C1
:101F68009A687B681B6822F400629A607B681B6829
:101F780099687B68DA687B681B680A439A607B68A3
:101F88009B6A584A934222D07B681B689A687B6890
:101F98001B6822F070629A607B681B6899687B688E
:101FA8009A6A7B681B680A439A607B681B689A6810
:101FB8007B681B6822F040529A607B681B689968AE
:101FC8007B68DA6A7B681B680A439A600FE07B6863
:101FD8001B689A687B681B6822F070629A607B684D
:101FE8001B689A687B681B6822F040529A607B687D
:101FF8001B689A687B681B6822F002029A607B68FB
:102008001B6899687B681B7E5A007B681B680A43BB
:102018009A607B6893F82030002B1BD07B681B6884
:102028005A687B681B6842F400625A607B681B68C8
:102038005A687B681B6822F460425A607B681B6898
:1020480059687B685B6A013B5A037B681B680A43D3
:102058005A6007E07B681B685A687B681B6822F433
:1020680000625A607B681B68DA6A7B681B6822F426
:102078007002DA627B681B68D96A7B68DB69013B9E
:102088001A057B681B680A43DA627B681B689A68D2
:102098007B681B6822F400729A607B681B689968E9
:1020A8007B6893F830305A027B681B680A439A6051
:1020B8007B681B689A687B681B6822F480629A6058
:1020C8007B681B6899687B685B699A027B681B68F8
:1020D8000A439A6000BF1437BD4680BC704700BFF2
:1020E800002301400100000F80B485B000AF786084
:1020F8007B6803F00703FB600C4BDB68BB60BA68C6
:102108004FF6FF031340BB60FB681A02BB6813431A
:1021180043F0BF6343F40033BB60044ABB68D36039
:1021280000BF1437BD4680BC704700BF00ED00E01B
:1021380080B400AF044BDB681B0A03F007031846A2
:10214800BD4680BC704700BF00ED00E080B483B09E
:1021580000AF0346FB7197F90730002B0BDBFB79C7
:1021680003F01F02064997F907305B09012000FABE
:1021780002F241F8232000BF0C37BD4680BC7047EF
:1021880000E100E080B483B000AF03463960FB7122
:1021980097F90730002B0ADB3B68DAB20C4997F94C
:1021A80007301201D2B20B4483F800230AE03B68DF
:1021B800DAB20849FB7903F00F03043B1201D2B2EB
:1021C8000B441A7600BF0C37BD4680BC704700BF71
:1021D80000E100E000ED00E080B489B000AFF860F5
:1021E800B9607A60FB6803F007037B617B69033B96
:1021F800042B04D87B69C3F10703FB6101E00423C6
:10220800FB617B690433062B03D97B69033BBB6104
:1022180001E00023BB614FF0FF32FB6902FA03F3D0
:10222800DA43BB681A40BB699A404FF0FF31BB697B
:1022380001FA03F3D9437B680B401343184624374C
:10224800BD4680BC7047000080B582B000AF7860A2
:102258007B68013BB3F1807F01D301230FE00A4A79
:102268007B68013B53600F214FF0FF30FFF78AFF77
:10227800054B00229A60044B07221A600023184677
:102288000837BD4680BD00BF10E000E080B582B0D1
:1022980000AF78607868FFF727FF00BF0837BD46B2
:1022A80080BD80B586B000AF0346B9607A60FB7325
:1022B80000237B61FFF73CFF78617A68B968786929
:1022C800FFF78AFF024697F90F3011461846FFF7C5
:1022D80059FF00BF1837BD4680BD80B582B000AF3A
:1022E8000346FB7197F907301846FFF72FFF00BF29
:1022F8000837BD4680BD80B582B000AF7860786889
:10230800FFF7A2FF034618460837BD4680BD000008
:1023180080B489B000AF7860396000237B61002306
:102328003B610023BB610023FB6159E10122FB698A
:1023380002FA03F37B613B681B687A6913403B61CF
:102348003A697B699A4240F048813B685B6803F0D0
:102358000303012B05D03B685B6803F00303022BE2
:1023680030D17B689B68BB61FB695B00032202FA82
:1023780003F3DB43BA691340BB613B68DA68FB6966
:102388005B0002FA03F3BA691343BB617B68BA695D
:102398009A607B685B68BB610122FB6902FA03F300
:1023A800DB43BA691340BB613B685B681B0903F0F8
:1023B8000102FB6902FA03F3BA691343BB617B6844
:1023C800BA695A603B685B6803F00303032B17D0B4
:1023D8007B68DB68BB61FB695B00032202FA03F3DD
:1023E800DB43BA691340BB613B689A68FB695B00D1
:1023F80002FA03F3BA691343BB617B68BA69DA600E
:102408003B685B6803F00303022B23D1FB69DA08FE
:102418007B68083253F82230BB61FB6903F007037D
:102428009B000F2202FA03F3DB43BA691340BB6136
:102438003B681A69FB6903F007039B0002FA03F380
:10244800BA691343BB61FB69DA087B680832B9696A
:1024580043F822107B681B68BB61FB695B000322A1
:1024680002FA03F3DB43BA691340BB613B685B685C
:1024780003F00302FB695B0002FA03F3BA69134332
:10248800BB617B68BA691A603B685B6803F44033D8
:10249800002B00F0A2800023FB60564B5B6C554A72
:1024A80043F480435364534B5B6C03F48043FB60F9
:1024B800FB68514AFB699B08023352F82330BB6121
:1024C800FB6903F003039B000F2202FA03F3DB43CB
:1024D800BA691340BB617B68484A934219D07B684C
:1024E800474A934213D07B68464A93420DD07B6893
:1024F800454A934207D07B68444A934201D104235A
:1025080008E0072306E0032304E0022302E0012396
:1025180000E00023FA6902F0030292009340BA69CE
:102528001343BB613449FB699B080233BA6941F81C
:102538002320374B9B68BB613B69DB43BA69134077
:10254800BB613B685B6803F48013002B03D0BA6956
:102558003B691343BB612E4ABB6993602C4BDB6814
:10256800BB613B69DB43BA691340BB613B685B688D
:1025780003F40013002B03D0BA693B691343BB6112
:10258800234ABB69D360224B5B68BB613B69DB4371
:10259800BA691340BB613B685B6803F40033002BE6
:1025A80003D0BA693B691343BB61194ABB695360DD
:1025B800174B1B68BB613B69DB43BA691340BB61BE
:1025C8003B685B6803F48033002B03D0BA693B692E
:1025D8001343BB610E4ABB691360FB690133FB619E
:1025E800FB690F2B7FF6A2AE00BF00BF2437BD46A4
:1025F80080BC7047003802400038014000000240AB
:102608000004024000080240000C02400010024092
:10261800003C014080B483B000AF78600B467B80FB
:1026280013467B707B78002B03D07A887B689A618D
:1026380003E07B881A047B689A6100BF0C37BD46AB
:1026480080BC704780B582B000AF78607B68002B93
:1026580001D1012341E07B6893F83D30DBB2002BC8
:1026680006D17B68002283F83C20786800F039F8AE
:102678007B68022283F83D207B681A687B680433F4
:102688001946104600F034FA7B68012283F8462088
:102698007B68012283F83E207B68012283F83F2073
:1026A8007B68012283F840207B68012283F841205F
:1026B8007B68012283F842207B68012283F843204B
:1026C8007B68012283F844207B68012283F8452037
:1026D8007B68012283F83D20002318460837BD4651
:1026E80080BD80B483B000AF786000BF0C37BD46B2
:1026F80080BC704780B485B000AF78607B6893F881
:102708003D30DBB2012B01D001233CE07B68022283
:1027180083F83D207B681B681D4A934218D07B686C
:102728001B68B3F1804F13D07B681B68194A93422A
:102738000ED07B681B68184A934209D07B681B68D7
:10274800164A934204D07B681B68154A934211D1FC
:102758007B681B689B6803F00703FB60FB68062B1C
:1027680010D07B681B681A687B681B6842F00102FE
:102778001A6007E07B681B681A687B681B6842F070
:1027880001021A60002318461437BD4680BC704702
:10279800000001400004004000080040000C004018
:1027A8000040014080B584B000AF786039600023F4
:1027B800FB733B68002B04D17B6893F83E30BB73F6
:1027C80013E03B68042B04D17B6893F83F30BB735C
:1027D8000BE03B68082B04D17B6893F84030BB734F
:1027E80003E07B6893F84130BB733B68002B04D14E
:1027F8007B6893F842307B7313E03B68042B04D169
:102808007B6893F843307B730BE03B68082B04D15B
:102818007B6893F844307B7303E07B6893F845301A
:102828007B73BB7B012B02D17B7B012B01D0012366
:10283800B4E03B68002B04D17B68022283F83E2079
:1028480013E03B68042B04D17B68022283F83F2005
:102858000BE03B68082B04D17B68022283F84020F8
:1028680003E07B68022283F841203B68002B04D1F7
:102878007B68022283F8422013E03B68042B04D1D2
:102888007B68022283F843200BE03B68082B04D1C5
:102898007B68022283F8442003E07B68022283F8E5
:1028A80045203B680C2B2AD03B680C2B30D83B6862
:1028B800082B1BD03B68082B2AD83B68002B03D079
:1028C8003B68042B09D023E07B681B68DA687B68C7
:1028D8001B6842F00202DA601DE07B681B68DA6858
:1028E8007B681B6842F00402DA6014E07B681B68AE
:1028F800DA687B681B6842F00802DA600BE07B68E4
:102908001B68DA687B681B6842F01002DA6002E034
:102918000123FB7300BFFB7B002B3ED17B681B6848
:1029280001223968184600F0A3FA7B681B681D4A23
:10293800934218D07B681B68B3F1804F13D07B6833
:102948001B68194A93420ED07B681B68174A93424A
:1029580009D07B681B68164A934204D07B681B68C1
:10296800144A934211D17B681B689B6803F00703E4
:10297800BB60BB68062B10D07B681B681A687B6835
:102988001B6842F001021A6007E07B681B681A683E
:102998007B681B6842F001021A60FB7B18461037FF
:1029A800BD4680BD00000140000400400008004012
:1029B800000C00400040014080B586B000AFF860D0
:1029C800B9607A600023FB75FB6893F83C30012BF3
:1029D80001D1022388E0FB68012283F83C207B6850
:1029E800002B1BD1FB681868BB681968BB685A685C
:1029F800BB68DB6800F000F9FB681B689A69FB6834
:102A08001B6822F00C029A61FB681B689969BB6815
:102A18009A68FB681B680A439A6160E07B68042B2C
:102A28001CD1FB681868BB681968BB685A68BB6822
:102A3800DB6800F051F9FB681B689A69FB681B6842
:102A480022F440629A61FB681B689969BB689B68BD
:102A58001A02FB681B680A439A6140E07B68082BEE
:102A68001BD1FB681868BB681968BB685A68BB68E3
:102A7800DB6800F079F9FB681B68DA69FB681B689A
:102A880022F00C02DA61FB681B68D969BB689A6896
:102A9800FB681B680A43DA6121E07B680C2B1CD1B8
:102AA800FB681868BB681968BB685A68BB68DB684C
:102AB80000F0A2F9FB681B68DA69FB681B6822F45E
:102AC8004062DA61FB681B68D969BB689B681A02B7
:102AD800FB681B680A43DA6101E00123FB75FB68A8
:102AE800002283F83C20FB7D18461837BD4680BD80
:102AF80080B485B000AF786039607B681B68FB6084
:102B08007B68364A93420FD07B68B3F1804F0BD075
:102B18007B68334A934207D07B68324A934203D09A
:102B28007B68314A934208D1FB6823F07003FB604D
:102B38003B685B68FA681343FB607B68274A9342EB
:102B48001BD07B68B3F1804F17D07B68244A93422F
:102B580013D07B68234A93420FD07B68224A934262
:102B68000BD07B68214A934207D07B68204A934266
:102B780003D07B681F4A934208D1FB6823F4407353
:102B8800FB603B68DB68FA681343FB60FB6823F073
:102B980080023B685B691343FB603B689A687B680B
:102BA800DA623B681A687B689A627B680B4A9342D0
:102BB80003D13B681A697B681A637B681B6843F01A
:102BC80004027B681A607B6801225A617B68FA6894
:102BD8001A6000BF1437BD4680BC70470000014032
:102BE8000004004000080040000C00400040014084
:102BF800004401400048014080B487B000AFF8604D
:102C0800B9607A603B60FB681B6A3B61FB681B6AC2
:102C180023F00102FB681A62FB682A4A934205D135
:102C2800FB681B6A23F00402FB681A62FB689B6955
:102C38007B61FB68234A934213D0FB68B3F1804F52
:102C48000FD0FB68204A93420BD0FB681F4A93427F
:102C580007D0FB681E4A934203D0FB681D4A934283
:102C680001D1012300E00023002B08D07B6923F069
:102C780003037B617A697B6813437B6103E07B69AB
:102C880043F001037B617B6923F0F0037B613B68C0
:102C98001B01DBB27A6913437B613B6923F00A03AA
:102CA8003B61BB6803F00A033A6913433B61FB6865
:102CB8007A699A61FB683A691A6200BF1C37BD4697
:102CC80080BC70470000014000040040000800403C
:102CD800000C00400040014080B487B000AFF860AD
:102CE800B9607A603B60FB681B6A7B61FB681B6AA2
:102CF80023F01002FB681A62FB681A4A934205D156
:102D0800FB681B6A23F04002FB681A62FB689B6938
:102D18003B613B6923F440733B617B681B023A6962
:102D280013433B613B6923F470433B613B681B03DE
:102D38009BB23A6913433B617B6923F0A0037B6133
:102D4800BB681B0103F0A0037A6913437B61FB682E
:102D58003A699A61FB687A691A6200BF1C37BD46F6
:102D680080BC70470000014080B487B000AFF860B5
:102D7800B9607A603B60FB681B6A7B61FB681B6A11
:102D880023F48072FB681A62FB681A4A934205D1E1
:102D9800FB681B6A23F48062FB681A62FB68DB69C4
:102DA8003B613B6923F003033B613A697B6813434A
:102DB8003B613B6923F0F0033B613B681B01DBB2DD
:102DC8003A6913433B617B6923F420637B61BB68E9
:102DD8001B0203F420637A6913437B61FB683A6939
:102DE800DA61FB687A691A6200BF1C37BD4680BC8D
:102DF800704700BF0000014080B487B000AFF860A2
:102E0800B9607A603B60FB681B6A7B61FB681B6A80
:102E180023F48052FB681A62FB68DB693B613B69FB
:102E280023F440733B617B681B023A6913433B619F
:102E38003B6923F470433B613B681B039BB23A69CF
:102E480013433B617B6923F420437B61BB681B030D
:102E580003F420437A6913437B61FB683A69DA61BA
:102E6800FB687A691A6200BF1C37BD4680BC704790
:102E780080B487B000AFF860B9607A60BB6803F0CF
:102E88001F03012202FA03F37B61FB681A6A7B695C
:102E9800DB431A40FB681A62FB681A6ABB6803F0D6
:102EA8001F03796801FA03F31A43FB681A6200BF2B
:102EB8001C37BD4680BC704780B485B000AF7860D1
:102EC80039607B6893F83C30012B01D1022350E034
:102ED8007B68012283F83C207B68022283F83D202E
:102EE8007B681B685B68FB607B681B689B68BB60D2
:102EF800FB6823F07003FB603B681B68FA681343A8
:102F0800FB607B681B68FA685A607B681B681B4A11
:102F1800934218D07B681B68B3F1804F13D07B684D
:102F28001B68174A93420ED07B681B68154A934268
:102F380009D07B681B68144A934204D07B681B68DD
:102F4800124A93420CD1BB6823F08003BB603B68F4
:102F58005B68BA681343BB607B681B68BA689A6091
:102F68007B68012283F83D207B68002283F83C209F
:102F7800002318461437BD4680BC70470000014046
:102F88000004004000080040000C004000400140E0
:102F980080B400AF054BD3F88830044A43F470037B
:102FA800C2F8883000BFBD4680BC704700ED00E025
:102FB800DFF834D0FFF7ECFF0C480D490D4A002329
:102FC80002E0D458C4500433C4188C42F9D30A4AD6
:102FD8000A4C002301E013600432A242FBD300F044
:102FE80011F8FDF7FDFD704700800120000000206A
:102FF800600000200057000860000020981C002096
:10300800FEE7000070B50D4B0D4D5B1B9C100026B4
:10301800A64209D102F046FA0A4D0B4B5B1B9C10E5
:103028000026A64205D170BD55F8043B98470136E5
:10303800EEE755F8043B98470136F2E7F8560008E2
:10304800F8560008F8560008FC5600080000000072
:10305800F8B52DED028B55EC114B57EC106B00F0C9
:103068002FFC22462B4620462946B0EE408AF0EE39
:10307800608AFDF727FD78B90022002330463946DB
:10308800FDF7EEFCF0B10022002320462946FDF7AB
:10309800E7FC40B19FED288BB0EE480AF0EE680AD5
:1030A800BDEC028BF8BD45EC104B00F009F9002887
:1030B800F2D00022002320462946FDF7DBFC002839
:1030C800EAD02EE0B0EE480AF0EE680A00F0F8F810
:1030D800A0B151EC180B00220023FDF7C1FC002819
:1030E800DAD047EC106B00F0EBF80028D4D045ECB0
:1030F800104B00F0E5F80028CED012E047EC106B3A
:1031080000F0DEF80028E4D045EC104B00F0D8F8C9
:103118000028DED053EC182B51EC180BFDF7D2FC2D
:1031280020B902F0B9F922230360B5E702F0B4F937
:1031380021230360B0E700BF000000000000F03F5B
:1031480038B52DED028B55EC104B00F0C5F8224632
:103158002B4620462946B0EE408AF0EE608AFDF7FD
:10316800B1FC30B90022002320462946FDF782FC35
:1031780030B9B0EE480AF0EE680ABDEC028B38BDF3
:1031880002F08AF900220023212101601046194625
:10319800FDF728FB41EC180BB0EE480AF0EE680A80
:1031A800BDEC028B38BD00BF51EC100B1E4A21F05C
:1031B800004393421ED900B51C4A934285B008D9F2
:1031C80002460B46FDF72CF841EC100B05B05DF8F4
:1031D80004FB684601F0B4F900F0030001289DEDF6
:1031E800000B9DED021B14D0022807D0A0B900F0F7
:1031F8006BF9EBE79FED0A1B00F066B900F064F984
:1032080053EC102B03F1004300EE903A05B05DF843
:1032180004FB00F091FAF3E7012000F08DFAD5E7FE
:103228000000000000000000FB21E93FFFFFEF7FE6
:1032380051EC100B204A21F0004393421FD900B5EE
:103248001E4A934285B008D902460B46FCF7E8FFB0
:1032580041EC100B05B05DF804FB684601F070F90D
:1032680000F0030001289DED000B9DED021B17D017
:10327800022809D0B8B9012000F05EFAEAE79FED0C
:103288000C1B002000F058BA012000F055FA53EC4E
:10329800102B03F1004300EE903A05B05DF804FBF3
:1032A80000F012F9D6E700F00FF9F0E7AFF300806D
:1032B8000000000000000000FB21E93FFFFFEF7F56
:1032C80082B08DED000B019840F0004000F58010B1
:1032D800C00F02B0704700BF2DE9F84F774955EC91
:1032E800104BA94300F0AE80002D2A46234655DD39
:1032F8002C1562D0C2F31302E107A4F2FF3742F49F
:10330800801203D4520002EBD3725B0052000026F5
:1033180002EBD3727F105B001624B4464FF4001101
:103328000CEB010090424FEAD3754FEA430303DCEC
:1033380000EB010C121A0E44013C05EB42024FEA65
:103348005101EDD1A04620254FF000400AE043D0BE
:10335800510001EBD371013D0A464FEA43034FEA9E
:10336800500045D0624500EB080EF0DDBEF1000FBD
:103378000EEB00080CDBE146A2EB0C019E4588BF72
:1033880001F1FF314900CC46A3EB0E030444E0E70A
:10339800B8F1000FEFDB0CF10109EDE725F0004172
:1033A800214346D0002D74D1D90A153A5B0500296E
:1033B800FAD0CE0214467DD40A4600215200D50226
:1033C800084601F10101F9D5C1F1200523FA05F5F7
:1033D8002A438B40241A8DE79E4502D94FEA4C01B7
:1033E800B7E7BEF1000F0EEB000824DB0021CBE7A6
:1033F800194312D0DFF8C8A0DFF8C8B0DAE9000135
:10340800DBE90023FCF70CFFDAE9008902460B46EA
:1034180040464946FDF738FB10BB6508711001F1BD
:103428007F5101F5001101EB075345EAC67243ECE1
:10343800102BBDE8F88FB8F1000FD7DB0CF1010CA9
:103448000021A1E722462B4620462946FDF7A0F891
:1034580022462B46FCF7E6FE41EC100BBDE8F88F40
:10346800B4F1FF3FDAE90001DBE900231ED0FCF7E5
:10347800D9FEDAE9008902460B4640464946FDF77F
:10348800F9FAA8B1A31C04F1020508BF01366D08BA
:10349800C4E722462B4620462946FCF7C1FE0246D1
:1034A8000B46FDF79FF941EC100BC2E70136B5E773
:1034B8000134B2E74FF0FF300A468BE70000F07F97
:1034C80018550008105500082DE9F04F57EC106BFF
:1034D80027F00048B8F1795F5BEC11AB85B071D289
:1034E80030463946FDF704FB002800F0F4803246E8
:1034F8003B4630463946FDF74BF879A3D3E900231C
:1035080004460D46FDF744F877A3D3E90023FCF7FA
:1035180089FE22462B46FDF73BF875A3D3E9002325
:10352800FCF77EFE22462B46FDF732F872A3D3E95C
:103538000023FCF777FE22462B46FDF729F870A3F7
:10354800D3E90023FCF76CFE22462B46FDF720F852
:103558006DA3D3E90023FCF765FE22462B46FDF751
:1035680017F8CDE900016E4B002220462946FDF7E9
:103578000FF8DDE900238046894620462946FDF7F5
:1035880007F844464D468046894652465B463046D3
:103598003946FCF7FDFF02460B4640464946FCF714
:1035A8003FFE02460B4620462946FCF739FE0246F6
:1035B8000B4600205B49FCF733FE41EC100B05B0CD
:1035C800BDE8F08F32463B4630463946FCF7E0FF0F
:1035D80043A3D3E9002304460D46FCF7D9FF42A3D1
:1035E800D3E90023FCF71EFE22462B46FCF7D0FF4A
:1035F8003FA3D3E90023FCF713FE22462B46FCF732
:10360800C7FF3DA3D3E90023FCF70CFE22462B4657
:10361800FCF7BEFF3AA3D3E90023FCF701FE2246DC
:103628002B46FCF7B5FF38A3D3E90023FCF7FAFDD6
:103638002B462246FCF7ACFF3B4B9845CDE90001F1
:1036480091D93A4B98453DD8A8F500130022354941
:10365800002090469946FCF7E3FDCDE90201304B86
:10366800002220462946FCF793FF42464B46FCF7CA
:10367800D7FDDDE900238046894620462946FCF728
:1036880087FF44464D468046894652465B4630464B
:103698003946FCF77DFF02460B4640464946FCF793
:1036A800BFFD02460B4620462946FCF7B9FD0246F7
:1036B8000B46DDE90201FCF7B3FD41EC100B05B048
:1036C800BDE8F08F9FED127BDFF864908DED027BF3
:1036D8004FF00008C3E79FED100B05B0BDE8F08F71
:1036E800D43888BEE9FAA8BDC4B1B4BD9EEE213E67
:1036F800AD529C804F7E923E9015CB19A001FA3EA8
:103708007751C1166CC1563F4C5555555555A53F77
:10371800000000000000E73F000000000000F03F4C
:103728000000E03F0000F03F3233D33F0000E93FA4
:103738000000D23F000000002DE9F04F55EC104B7F
:1037480025F0004385B0B3F1795F8DED001B82460B
:1037580006D220462946FDF7CBF9002800F08C80D8
:1037680022462B4620462946FCF712FF06460F46FE
:1037780032463B4620462946FCF70AFF45A3D3E9D3
:103788000023CDE9020130463946FCF701FF43A387
:10379800D3E90023FCF744FD32463B46FCF7F8FE2C
:1037A80040A3D3E90023FCF73DFD32463B46FCF736
:1037B800EFFE3EA3D3E90023FCF732FD32463B4639
:1037C800FCF7E6FE3BA3D3E90023FCF72BFD80467C
:1037D8008946BAF1000F37D0DDE900012C4B0022F1
:1037E800FCF7D6FEDDE902AB42464B4680468946E9
:1037F80050465946FCF7CCFE02460B464046494621
:10380800FCF70EFD32463B46FCF7C2FEDDE900231D
:10381800FCF706FD1CA3D3E9002306460F465046D5
:103828005946FCF7B5FE02460B4630463946FCF7CA
:10383800F9FC02460B4620462946FCF7F1FC41EC10
:10384800100B05B0BDE8F08F02460B4630463946EE
:10385800FCF79EFE0CA3D3E90023FCF7E1FCDDE9AD
:103868000223FCF795FE22462B46FCF7DBFC41ECD5
:10387800100B05B0BDE8F08F45EC104B05B0BDE866
:10388800F08F00BFAFF30080495555555555C53FDA
:103898000000E03F7CD5CF5A3AD9E53DEB9C2B8A16
:1038A800E6E55A3E7DFEB157E31DC73ED561C11915
:1038B800A0012A3FA6F810111111813F0000000055
:1038C8002DE9F04F5AEC119B2AF0004B59EA0B00F6
:1038D80055EC104B93B012D123196D4985F4002291
:1038E80052419842914123D24A465346204629469E
:1038F800FCF798FC41EC100B13B0BDE8F08F654B5A
:103908008DED000A25F000429A422E46029214D903
:10391800009B06F1404606F580161E43E4D14B464F
:10392800DB185B498AF4002252419E429141DBD365
:103938009FED550B13B0BDE8F08FD0464F4613D01E
:103948009B45E5D8029B52D0002E15DB002F40F096
:103958008980514A934540F02384B8F1000FC0F2A2
:10396800188545EC104BC7E7002CBDD19345BBD853
:1039780000F02684029BE7E7484A934500F2AC83AF
:10398800474A934500F2AD83002F40F0D583B8F144
:10399800804F00F00B8545EC104B049300F0E2FFDC
:1039A800009A049B002A38D0F20F013A57EA020124
:1039B80065D0013F174300F08A839FED337B8DED7F
:1039C800087BBBF1844F6FD9364B029A9B45344B29
:1039D80040F22C849A4200F21085B8F1000FC0F230
:1039E8001085002013B0BDE8F04F01F07DB8002F1E
:1039F8008ED1029B009A03F1404303F580131343D1
:103A080096D0274B029A9A4240F29A84B8F1000F56
:103A1800C0F220854AEC109B6EE71F4A26F0404111
:103A2800914202D0029A002ABED1B8F1000FC0F22A
:103A38007D84002EBFF660AF029B03F1404A0AF571
:103A4800801A5AEA070A40F0BB8453EC102B104640
:103A58001946FCF7E5FB02460B46FCF7C3FE41ECB2
:103A6800100B49E7002745EC104B049300F07AFF50
:103A7800009A049B002AD0D0F20F013A99E7224617
:103A88002B46E4E7AFF30080000000000000F03FA1
:103A98000000F0FF0000F07F0000F03FFFFF3F4311
:103AA800FFFFEF3F0000F043D74A3240002A40F0C2
:103AB8003584D64B51EC100B0022FCF769FD41EC24
:103AC800100B10EE903A6FF034011A15A2F2FF3283
:103AD80002EB0108CE4AC3F3130343F07F54934229
:103AE80044F4401440F30B84CA4A934240F375846B
:103AF8009FEDAF7B8DED0A7B9FEDAF7B8DED067B58
:103B08009FEDAB7B8DED107B08F10108A4F58014C7
:103B1800002553EC102B21461046DDE90623CDE99C
:103B28000401FCF77DFBDDE9062306460F46DDE9C7
:103B38000401FCF777FB02460B460020B649FCF768
:103B480051FE8C4683465A46634630463946CDE98F
:103B58000CBCFCF71DFD64100A460146CDE90212B3
:103B680044F00054DDE902BC04F500235919002093
:103B780004460D464FF0000B6146584622462B4638
:103B8800CDE90EBCCDE90001FCF702FD02460B466B
:103B980030463946FCF744FBDDE9062306460F4666
:103BA80020462946FCF73CFB02460B46DDE90401AA
:103BB800FCF736FBDDE90023FCF7EAFC02460B467E
:103BC80030463946FCF72CFBDDE90C23FCF7E0FC1A
:103BD800DDE90245CDE9040122462B462046294667
:103BE800FCF7D6FC76A3D3E9002304460D46FCF780
:103BF800CFFC75A3D3E90023FCF714FB22462B4620
:103C0800FCF7C6FC72A3D3E90023FCF70BFB2246A2
:103C18002B46FCF7BDFC70A3D3E90023FCF702FB9D
:103C280022462B46FCF7B4FC6DA3D3E90023FCF72E
:103C3800F9FA22462B46FCF7ABFC6BA3D3E9002329
:103C4800FCF7F0FA224606460F462B462046294640
:103C5800FCF79EFC02460B4630463946FCF798FCBA
:103C6800DDE9006704460D463246DDE902013B46C0
:103C7800FCF7D8FADDE90423FCF78AFC22462B4638
:103C8800FCF7D0FA324604460D463B4630463946E4
:103C9800FCF77EFC614B002206460F46FCF7C2FA91
:103CA80022462B46CDE90645FCF7BCFADDE90EBCF9
:103CB8000D465A46DDE900012B46CDE90CBCFCF760
:103CC80067FC5C46CDE90001544B0022204629469A
:103CD800FCF7A6FA32463B46FCF7A2FA02460B4628
:103CE800DDE90601FCF79CFADDE90223FCF750FC4C
:103CF800224606460F462B46DDE90401FCF748FC40
:103D080002460B4630463946FCF78CFA06460F4603
:103D18003246DDE900013B46FCF784FADDE90CBCDC
:103D280033A3D3E900235846CDE902BC0D46FCF77E
:103D38002FFC5C46DDE90023CDE900012046294639
:103D4800FCF76EFA02460B4630463946FCF768FA2D
:103D580029A3D3E90023FCF71BFC02460B462046A7
:103D6800294614461D4626A3D3E90023FCF710FC78
:103D780002460B4620462946FCF754FADDE9102393
:103D8800FCF750FA064640460F46FCF797FB3246CA
:103D980004460D463B46DDE90001FCF743FADDE940
:103DA8000A23FCF73FFA22462B46FCF73BFA37E09A
:103DB8000000000000000000000000000000F03FCC
:103DC800EF4E454A287ECA3F65DBC9934A86CD3FF8
:103DD80001411DA96074D13F4D268F515555D53FDE
:103DE800FFAB6FDBB66DDB3F033333333333E33F76
:103DF800000000E009C7EE3FFD033ADC09C7EE3FCB
:103E0800F5015B14E02F3EBE0000F07F0000404348
:103E18008E98030079B60B000000F03F00000840C0
:103E2800DDE902BC224658462B46CDE90201FCF7E3
:103E3800F7F9DDE90A23FCF7F3F9DDE90023FCF7DC
:103E4800EFF902460B4630463946FCF7E9F9CDE969
:103E580004010023CDE9009A0093DDE90067484694
:103E680032463B465146FCF7DBF9DDE90223FCF715
:103E78008FFB4A4604460D465346DDE90401FCF72C
:103E880087FB02460B4620462946FCF7CBF932460B
:103E980004460D463B46DDE90201CDE90245FCF743
:103EA80077FB06460F46204629463B463246FCF736
:103EB800B9F9D94B994204460D46884640F35081DA
:103EC80001F13F4303F5E003034340F0A882BEA39A
:103ED800D3E90023DDE90201FCF7A4F902460B4609
:103EE8002046294614461D4632463B46FCF798F9BB
:103EF80002460B4620462946FCF7DAFD002840F02A
:103F08008E824FF400734344C3F30A52C34CA2F2A7
:103F1800FF321441C3F3130AC2F11402002004EA69
:103F280003014AF4801A4AFA02FA0B460246B8F12B
:103F3800000F30463946B8BFCAF1000AFCF770F9DD
:103F480002460B4606460F46DDE90201FCF76AF910
:103F58004FEA0A5B0D4600249DA3D3E900232046BF
:103F68002946FCF715FB3246804689463B462046E3
:103F78002946FCF755F902460B46DDE90201FCF734
:103F88004FF995A3D3E90023FCF702FB02460B4641
:103F98002046294614461D4691A3D3E90023FCF781
:103FA800F7FA02460B4620462946FCF73BF9064637
:103FB8000F4632463B4640464946FCF733F94246EF
:103FC8004B4604460D46FCF72BF902460B46304695
:103FD8003946FCF725F92246804689462B46204675
:103FE8002946FCF7D5FA80A3D3E9002306460F46F5
:103FF800FCF7CEFA7EA3D3E90023FCF711F9324689
:104008003B46FCF7C5FA7CA3D3E90023FCF70AF981
:1040180032463B46FCF7BCFA79A3D3E90023FCF708
:10402800FFF832463B46FCF7B3FA77A3D3E90023FF
:10403800FCF7F8F832463B46FCF7AAFA02460B466C
:1040480020462946FCF7ECF806460F4632463B4622
:1040580020462946FCF79CFA02460B46304639466C
:1040680016461F4600224FF08043FCF7D9F8024657
:104078000B4630463946FCF7B5FB424606460F4626
:104088004B4620462946FCF783FA42464B46FCF746
:10409800C9F802460B4630463946FCF7C1F82246B5
:1040A8002B46FCF7BDF80B4602465D490020FCF79D
:1040B800B7F80B465B44B3F5801FC0F2A8811946D8
:1040C800DDE90823FCF764FA41EC100B14E49FEDDA
:1040D800507B8DED087B74E4002F00F0B881022737
:1040E800C1E44FEA2B52A2F2FF32142A40F3368180
:1040F800C2F1340227FA02F101FA02F2BA4200F0E0
:10410800BA81CFB9B8F1804F049300F04F8145ECE4
:10411800104B00F027FC009B002B7FF4B0AC404A0A
:1041280026F04041914200F0CD81029A049B002A7A
:1041380000F0F780002737E445EC104B049300F0BB
:1041480011FC009B002B7FF49AAC354A26F04041C5
:104158009142EAD1B8F1000FC0F2A98100276BE4BF
:10416800DFF8C4C021F00043634540F209812D4BBC
:104178000B4403430AD132463B46FCF751F8DDE9CC
:104188000223FCF78BFC00283FF4BBAEDDE90801F5
:1041980000220023FCF76EFC003818BF012021E440
:1041A800B8F1804F00F00281A2F5801290457FF4AB
:1041B800F2AB45EC104B13B0BDE8F04FFFF78CB8ED
:1041C800002F7FF491AB1CE4FE822B654715973CCA
:1041D80000000000432EE63FEF39FAFE422EE63F8C
:1041E800396CA80C615C20BED0A4BE726937663EEB
:1041F800F16BD2C541BDBB3E2CDE25AF6A56113FDF
:1042080093BDBE166CC1663F3E5555555555C53FC5
:10421800000000000000F0BFFFFF8F400000F0FF2B
:104228000000F03F00346F3FFFCB90409A42C0F04F
:104238000081029ABE4B9A424FF0000200F20E81B2
:1042480051EC100BBA4BFBF7EBFFA7A3D3E9002304
:1042580004460D46FCF79CF9A5A3D3E900230646BE
:104268000F4620462946FCF793F9B24BCDE90001E9
:10427800002220462946FCF78BF902460B469EA1F0
:10428800D1E90001FBF7CCFF22462B46FCF780F969
:1042980002460B460020A849FBF7C2FF2246CDE99B
:1042A80002012B4620462946FCF772F902460B46C6
:1042B800DDE90201FCF76CF991A3D3E90023FCF7CF
:1042C80067F902460B46DDE90001FBF7A9FF044642
:1042D8000D4622462B4630463946FBF7A3FF002001
:1042E80032463B46CDE90201FBF79AFF02460B46F0
:1042F80020462946FBF794FFCDE90401A9E59FED87
:10430800827B8DED0A7B9FED827B8DED067B9DED9B
:104318000A7B00258DED107BFFF7FBBB0021FFF723
:10432800D4BBB8F1000FBFF619AF002753EC102B20
:104338007F490020FCF756FA41EC100BFFF779BBD8
:10434800B8F1000F9FED700BBFF6D6AA0AF1004333
:1043580000EE109A00EE903AFFF7CEBA002F7FF4E5
:10436800EBAEC2F114024BFA02F101FA02F25A451D
:104378006F4A00F0888093453FF4EFAAFFF707BB28
:104388006D4A934200F28B80DDE900239346924602
:10439800E1E56749002022462B46FCF723FA41EC69
:1043A800100BFFF7A9BAB8F1804F50D122462B461F
:1043B80020462946FCF7ECF841EC100BFFF79CBAB5
:1043C800012F7FF499AA10EE901A10EE102A01F12D
:1043D800004343EC102BFFF78FBA9FED4F7B8DED19
:1043E8000A7B9FED4F7B8DED107B9FED4F7B4FF44C
:1043F80080258DED067BFFF78CBBB8F1000F7FF7AA
:10440800F0AA002013B0BDE8F04F00F075BB41ECF6
:10441800100B504600F0B0FA51EC100B50E6DDE9F5
:10442800080100220023FCF725FB003818BF0120F3
:10443800E8E7DDE9080100220023FCF71BFB003850
:1044480018BF0120B8F1000FBFF6CCAADAE702279F
:10445800FFF7A1BA9FED2C0BFFF74EBADDE9080173
:104468000023FCF707FB003818BF0120B8F1000F44
:10447800C8DCFFF7B7BA002F95D001F00101C1F1F0
:104488000207FFF7F0BA93453FF467AAB8F1804FE7
:104498008CD001F00101C1F10207FFF77CBA1B15AE
:1044A800A3F2FE334FF4801242FA03F32BE553ECE8
:1044B800102B1F490020FCF795F9009F41EC100BC9
:1044C800FFF7BABAB8F1000FBFF648AE53EC102B9D
:1044D80017490020FCF786F9002741EC100BFFF77D
:1044E800ABBA00BFAFF30080000000604715F73F8C
:1044F80044DF5DF80BAE543E555555555555D53FDF
:10450800FE822B654715F73F000000000000000001
:10451800000000000000F03F0000004003B8E23F48
:1045280006D0CF43EBFD4C3E000000000000F83FF2
:104538000000F03F0000D03F0000E03F0000000016
:104548002DE9F04F53EC102B994923F000458D428B
:104558008FB0044640F28E8096498D421F462AD875
:10456800002F1046194688A3D3E9002340F3A781FA
:10457800FBF756FE904B9D4206460F4600F08E8094
:1045880083A3D3E90023FBF74BFE804689464246C6
:104598004B4630463946FBF743FE7DA3D3E900235B
:1045A800FBF73EFEC4E90089C4E902010126304652
:1045B8000FB0BDE8F08F81498D4240F28980804973
:1045C8008D4262D82E15A6F21646A5EB065910465E
:1045D80049469046FCF78CFAFBF770FF02460B46FB
:1045E80040464946CDE90823FBF71AFE754B0022E1
:1045F800FBF7CEFF89468046FCF77AFAFBF75EFFA9
:1046080002460B4640464946CDE90A23FBF708FE19
:104618006C4B0022FBF7BCFFCDE90C010DF1380A09
:1046280003254FF000084FF000097AE902014246DD
:104638004B46AB46013DFCF713FA0028F5D1624B17
:1046480001930223009332465B46214608A800F0F6
:104658005BFA002F0646AADA6168226801F1004376
:10466800E168C4E90023A26801F10043C4E9022318
:1046780046429CE70020002184ED000BC4E90201BA
:10468800002630460FB0BDE8F08F10461946FBF7FC
:10469800C7FDC4E90201C4E90001F1E73EA3D3E97B
:1046A8000023FBF7BDFD3EA3D3E9002306460F46D2
:1046B800FBF7B6FD8046894642464B4630463946AA
:1046C800FBF7AEFD36A3D3E90023FBF7A9FD69E7A5
:1046D80000F048F959EC108B33A3D3E90023404686
:1046E8004946FBF755FF394B0022FBF79BFDFCF7CA
:1046F800FFF90646FBF7E2FE02460B46CDE9022328
:1047080021A3D3E90023FBF743FF02460B464046AB
:104718004946FBF785FD1EA3D3E9002382468B4655
:10472800DDE90201FBF734FF02460B4650465946C5
:10473800CDE90423FBF774FD1F2E8046894649DC2A
:10474800234B721E53F82230AB4243D042464B46AD
:10475800C4E9008950465946FBF762FDDDE90423A8
:10476800FBF75EFD002FC4E90201BFF620AF09F197
:104778000043C4E9008301F10043C4E9020376421F
:1047880015E700BFAFF3008000004054FB21F93F5C
:104798003163621A61B4D03D0000601A61B4D03D43
:1047A8007370032E8A19A33B83C8C96D305FE43F39
:1047B800FB21E93F7BD90240FB21F93FFB2139412D
:1047C800FFFFEF7F00007041A05500080000E03FA8
:1047D80020550008C9F30A53C3EB1553102B4FEAB1
:1047E8002555B3DD56A3D3E90023DDE90201FBF724
:1047F800CFFE8046894642464B4650465946FBF70F
:104808000FFD02460B4650465946CDE9062392460F
:104818009B46FBF705FD42464B46FBF701FD4AA3C5
:10482800D3E9002380468946DDE90201FBF7B0FEA3
:1048380042464B46FBF7F4FC0B46024659465046A7
:10484800CDE90423FBF7ECFCC1F30A53ED1A312D33
:10485800804689467FF77AAF3EA3D3E90023DDE996
:104868000201FBF795FE8046894642464B46DDE944
:104878000601FBF7D5FC82468B4652465B46DDE9CE
:104888000601FBF7CDFC42464B46FBF7C9FC33A3B8
:10489800D3E9002380468946DDE90201FBF778FE6B
:1048A80042464B46FBF7BCFC02460B46504659466F
:1048B800CDE90423FBF7B4FC8046894646E7FBF7BD
:1048C800B1FC234B9D4206460F4618D01AA3D3E9E4
:1048D8000023FBF7A7FC8046894642464B463046F4
:1048E8003946FBF79DFC14A3D3E90023FBF79AFC98
:1048F800C4E90089C4E902014FF0FF3657E610A366
:10490800D3E90023FBF78EFC0FA3D3E90023064667
:104918000F46FBF787FC8046894642464B463046A1
:104928003946FBF77DFC08A3D3E90023FBF77AFCA3
:10493800DEE700BFAFF300803163621A61B4D03D97
:104948000000601A61B4D03D7370032E8A19A33B2E
:10495800FB21F93F0000002E8A19A33BC1492025FD
:104968009A837B3951EC100B024621F0004343EC4B
:10497800102B70470000000070B555EC104BC5F3C4
:104988000A5206462B4672BB25F00043234329D022
:104998003B4B204629460022FBF7FAFD394B9E4245
:1049A80004460D4652DBC1F30A520B46363A4CF226
:1049B80050318E4223DC164440F2FE7296421EDCD1
:1049C800002E34DC16F1350F38DB6FF31E53363604
:1049D80043EA065520462C4B29460022FBF7D8FD12
:1049E80041EC100B70BD40F2FF718A42DFD12246C4
:1049F80020462946FBF716FC41EC100B70BD002D34
:104A080017A1D1E9000107DB15A3D3E90023FBF7C0
:104A1800BFFD41EC100B70BD13A1D1E9000110A33B
:104A2800D3E90023FBF7B4FD41EC100BF3E76FF378
:104A38001E5343EA065545EC104B70BD002D0CA1E2
:104A4800D1E9000102DA0CA1D1E9000108A3D3E9F8
:104A58000023FBF79DFD41EC100B70BDAFF3008008
:104A68009C7500883CE4377E9C7500883CE437FEE2
:104A780059F3F8C21F6EA50159F3F8C21F6EA5813C
:104A880000005043B03CFFFF0000903C10B52DEDF6
:104A9800028BB0EE408AF0EE608A044600F0FCFC1F
:104AA800B0EE480AF0EE680ABDEC028B046010BD57
:104AB80000B5034683B051EC100B83B1024601F1F7
:104AC8000043CDE90023DDE90023FBF761FD41EC5C
:104AD800100B222003B05DF804EBFFF7D7BF0246A6
:104AE8000B46EEE7000000009FED010BFFF7E0BF6B
:104AF80000000000000000109FED010BFFF7D8BF79
:104B080000000000000000702DE9F04FADF5197DA0
:104B18009C460A91B04BA299039053F82130049314
:104B280012F1140F0CF1FF330293C0F2C182AB49AA
:104B3800D31E81FB0301DB17C3EBA10307930133EA
:104B4800A3EB8303DB00D318079A0B930CF1FF3315
:104B5800D41A049AD7181CD40137A39E274420AD31
:104B68004FF000084FF00009E24608E056F824002C
:104B7800FBF7A4FC0134BC42E5E8020108D0002C94
:104B8800F4DA013440464946BC42E5E80201F6D170
:104B9800D446049B002BB8BF4FEACC061BDB039915
:104BA800029A049B0DF1800901EBCC0809EBCC09B2
:104BB8000DF5E07B4FEACC069246634400200021C5
:104BC800002A80F298810AF1010A9A45EBE802016D
:104BD80009F10809F4D1039B049A009299190CABC6
:104BE80003EB8203043B08930CAB03EB82063746C6
:104BF8000B9ECDF824C08B46009A0DEBC203002A09
:104C0800D3E970454FEAC2082CDD0DF5E07AD044AF
:104C18000DF1300901960597714B0022204629466F
:104C2800FBF7B6FCFBF764FFFBF748FC6D4B002273
:104C380006460F46FBF7ACFC02460B4620462946C3
:104C4800FBF7EEFAFBF754FF78E9022349F8040B67
:104C580039463046FBF7E6FAD04504460D46DBD127
:104C6800019E059F45EC104B3046FFF785FE55EC3D
:104C7800104B00224FF07F5320462946FBF788FC53
:104C880041EC100B00F084FB574B51EC100B002249
:104C9800FBF77EFC02460B4620462946FBF7C0FA86
:104CA8000D460446FBF724FF8246FBF707FC024645
:104CB8000B4620462946FBF7B3FA002E8046894664
:104CC80040F39480009B0CAA591EC6F1180352F8B1
:104CD800212042FA03F000FA03F3D21AC6F11704AE
:104CE80042FA04F40CAB002C43F82120824400F370
:104CF800F0800022002340464946FBF7B1FE002819
:104D080000F02382009B049A93420CDD0CAA02EB6C
:104D18008303002253F8041DBB4242EA0102F9D181
:104D2800002A40F01081049B0CAA013B52F8233062
:104D3800009A501C8146002B40F0DB80089A012322
:104D480052F8041D01330029FAD0009A1344009A3E
:104D5800099905960A440799019301EB000A0DF198
:104D68008008A39906970AF1804A08EBC20870AA3E
:104D78000AF1FF3A02EBC00201EB8A0A00925AF8E4
:104D8800040FFBF79BFB029B002BE8E8020120DBEA
:104D9800039E47460024002577E90223F6E802012E
:104DA800FBF7F6FB02460B4620462946FBF73AFA84
:104DB8005E4504460D46EFD1009BE3E802450093AB
:104DC800019B09F101099945D9DDDDE905670093E2
:104DD80012E700240025EFE7E8560008ABAAAA2A44
:104DE8000000703E000070410000204057D0B64BD4
:104DF8000022FBF753FE044600283FF47AAF009BDD
:104E0800002B0AF1010AC8BF022440F384820CABCC
:104E1800002153F8045B002D3CD0C5F1807543F8A0
:104E2800045C6FF07F4003E01A68821A43F8042B91
:104E3800009A01318A42F7DC0125002E0EDD012E91
:104E480000F02B81022E09D1009B5A1E0CAB0CA935
:104E580053F82230C3F3150341F82230022C7FF4B3
:104E680048AF42464B4699490020FBF7D9F980469E
:104E78008946002D3FF43DAF30469FED910BFFF77B
:104E88007BFD4046494653EC102BFBF7C9F9804699
:104E980089462EE7009A01318A42BADCCDE7009BA9
:104EA8000CAA013B52F82340E415002C7FF721AFF0
:104EB800009B002B0AF1010AA9DC022C7FF419AF30
:104EC80042464B4681490020FBF7AAF980468946AD
:104ED8000FE7009B002B0AF1010A98DC012E00F075
:104EE8002E82022EE9D10CABC2F3150243F8212021
:104EF800E3E703462BE7CDE9003C52460596DA4640
:104F0800CB469146039E5F460024002577E902239D
:104F1800F6E80201FBF73CFB02460B462046294611
:104F2800FBF780F9464504460D46EFD1009B09F191
:104F380001099945EAE802450BF1080BE2D1DDF8D1
:104F480004C0059E47E60B9BDDF800B0A3F11802EC
:104F5800CDE9024A0CAB0BF1FF340B9253F8243025
:104F680063B90BF18043013B0CA901EB830353F8B0
:104F7800041D013C183A0029F9D00B929FED500B03
:104F88000B98FFF7F9FC002C5BEC10ABC0F2CD815D
:104F980004F101084FEAC8010DF5E0790CAB4C4F5C
:104FA800009103EB8805002609EBC80855F8040DA5
:104FB800FBF784FA52465B46FBF7EAFA3B4668E998
:104FC8000201324650465946FBF7E2FA0CAB9D42C5
:104FD80082468B46EAD10099A1F1080A48ABCA4437
:104FE800CDE905414FF000091A4607935346CA46D2
:104FF800DDF81090A346B9F1000FC0F2A380CDE907
:10500800002BDFF8D0801F460026002400259B4691
:1050180010E0F7E80223F8E80201FBF7B9FA0246C4
:105028000B4620462946FBF7FDF80136B1450446F4
:105038000D4601DB5645ECDD5B46009ADDF804B011
:105048000BF1FF3BBBF1FF3FE2E802450AF1010A21
:10505800A3F10803CFD1A29A079B022ADDE90541F3
:1050680000F3A980002A37DC10D15C180020002149
:105078001D4674E90223FBF7D5F8AC42F9D1029B2F
:10508800002B40F02F810A9BC3E90001039B03F02A
:1050980007000DF5197DBDE8F08F009B5A1E0CAB7B
:1050A8000CA953F82230C3F3160341F82230D5E691
:1050B80000216FF01703079145E500BFAFF30080AB
:1050C800000000000000F03F0000E03F0000F03F5B
:1050D8000000703EA8560008D3E900895D18002634
:1050E80000279A4675E9022330463946FBF79AF8B5
:1050F800554506460F46F5D1029B40464946002BCA
:1051080040F0E3803B463246FBF78AF80A9BC3E946
:1051180000676CB14AAE0125F6E802230135FBF7BA
:1051280081F8AC42F8DA029B13B101F10043194649
:105138000A9BC3E90201039B03F007000DF5197DE3
:10514800BDE8F08F002400257AE70B9EDDF800B05B
:10515800704249EC108BCDE9024AFFF70DFC55EC83
:10516800104B884B002220462946FBF797FC002865
:1051780000F0A280844B002220462946FBF708FA5B
:10518800FBF7B6FC0746FBF799F97E4B0022FBF7C5
:10519800FFF90B46024629462046FBF741F8FBF784
:1051A800A7FC0BF101040CAB183643F82B000B9647
:1051B80043F82470E2E6A29A032A7FF467AF002C32
:1051C80000F0CB8003EBC40595ED007B52EC171B78
:1051D800E600CDE90054CDE90465A8460C4615461D
:1051E800994678E902672046294632463B46FBF74E
:1051F80019F8A246AB4604460D4622462B463046D1
:105208003946FBF70DF852465B46FBF70BF8C845E5
:10521800C8E90201C8E90045E3D1DDE900A4012C91
:10522800DDE904654B4600F09880D5E90045CDE9F5
:10523800006909F1080B7AE90289204629464246A5
:105248004B46FAF7EFFF26462F4604460D46224600
:105258002B4640464946FAF7E3FF32463B46FAF703
:10526800E1FFD345CAE90201CAE90045E3D1DDE916
:10527800006306F108041C4403F110050020002116
:105288001E4674E90223FAF7CDFFA542F9D1334649
:10529800D3E90045D3E90278029B3BBB0A9BC3E9EB
:1052A8000401C3E90045C3E90278039B03F0070042
:1052B8000DF5197DBDE8F08F20462946FBF718FC4F
:1052C8000CAB5C4643F82B0058E60A9A07F10043FA
:1052D800536016603B463246FAF7A2FF002C7FF473
:1052E80019AF22E701F100431946CCE6264605F13D
:1052F80000440A9D08F10043C5E9027301F1004327
:10530800C5E90403039B03F00700C5E900640DF534
:10531800197DBDE8F08F42464B461C490020FAF73C
:105328007FFF022480468946E3E4A29B022B0FDC20
:10533800002B15DC7FF4AAAE002000219FE60CAB01
:10534800C2F31602022C43F821207FF4D2ACB7E551
:10535800A29B032B7FF49AAE48AB0020002197E76D
:10536800029BDDE9480133B10A9C00224FF000435B
:10537800C4E90023D9E60A9C00220023C4E90023DB
:10538800D6E600BF000070410000703E0000F03F0C
:1053980051EC100BC1F30A532DE9F041A3F2FF358C
:1053A800132D0C46064622DC002D41DB384B43FA10
:1053B80005F801EA080303430F461DD032A3D3E9D9
:1053C8000023FAF72FFF00220023FBF771FB40B1FF
:1053D800002C03DA4FF480132B411F4427EA0804FA
:1053E80000262346324643EC102BBDE8F081332DCE
:1053F80006DDB5F5806F2BD041EC100BBDE8F081D0
:10540800A3F213434FF0FF37DF403842F4D01EA316
:10541800D3E90023FAF706FF00220023FBF748FB35
:105428000028DED0002C334620DB23EA0706D8E725
:1054380015A3D3E90023FAF7F5FE00220023FBF7B2
:1054480037FB0028CDD0002C09DB00263446C8E7FE
:1054580002460B46FAF7E6FE41EC100BCEE724F0C5
:10546800004426430DD14FF00044BAE7142D06D06E
:10547800C5F134050122AA4013449E42D5D901340E
:10548800D3E7044C0026ACE79C7500883CE4377EE3
:10549800FFFF0F000000F0BF014B1868704700BF06
:1054A80010000020F8B500BFF8BC08BC9E46704745
:0C54B800F8B500BFF8BC08BC9E46704769
:1054C800000000000070D740000000000000F83F16
:1054D800000000000000000065732D3852C1F03F45
:1054E80002000000020000000000000002000000AE
:1054F800020000000000000001000000040000009D
:10550800000000000000000059F3F8C21F6EA5015A
:10551800000000000000F03FFB21F93FFB2109409B
:105528007CD91240FB2119407A6A1F407CD922405D
:10553800BBFD2540FB2129403A462C407A6A2F4082
:105548005C4731407CD932409C6B3440BBFD3540D0
:10555800DB8F3740FB2139401BB43A403A463C4088
:105568005AD83D407A6A3F404C7E40405C474140B3
:105578006C1042407CD942408CA243409C6B444012
:10558800AC344540BBFD4540CBC64640DB8F474069
:10559800EB584840FB21494083F9A200444E6E0075
:1055A800FC291500D1572700DD34F50062DBC00067
:1055B8003C999500419043006351FE00BBDEAB006F
:1055C800B761C5003A6E2400D24D42004906E0009A
:1055D80009EA2E001C92D100EB1DFE0029B11C0027
:1055E800E83EA700F535820044BB2E009CE9840004
:1055F800B4267000417E5F00D6913900538339008C
:105608009CF439008B5F840028F9BD00F81F3B002B
:10561800DEFF97000F980500112FEF000A5A8B0044
:105628006D1F6D00CF7E360009CB2700464FB700AF
:105638009E663F002DEA5F00BA277500E5EBC700BC
:105648003D7BF100F739070092528A00FB6BEA00B4
:105658001FB15F00085D8D00300356007BFC4600DB
:10566800F0AB6B0020BCCF0036F49A00E3A91D0014
:105678005E619100081BE60085996500A0145F0033
:105688008D40680080D8FF0027734D000606310062
:10569800CA561500C9A873007BE260006B8CC00075
:1056A80000000040FB21F93F000000002D44743E3B
:1056B800000000809846F83C0000006051CC783B20
:1056C80000000080831BF0390000004020257A3854
:1056D800000000802282E336000000001DF36935D7
:1056E80002000000030000000400000006000000A3
:0456F80001020008A3
:0456FC00D9010008C8
:10570000204E000010000000010000000024F40002
:105710001400002000000000601B0020C81B0020B7
:10572000301C00200000000000000000000000000D
:105730000000000000000000000000000000000069
:105740000000000000000000000000000000000059
:105750000000000000000000000000000000000049
:0400000508002FB907
:00000001FF
